:040000000CEF00F011
:10000800FACF02F0FBCF03F0E9CF04F01BED04F0C8
:10001800256E2250226E000E266E2250226E000E91
:10002800246E2250000E286E000E276E7DEC05F01F
:100038006AEC05F05CEC05F0D1EC04F0000E306ED3
:10004800000E2F6E226E000E336E2250080E166EB2
:100058002E0E156E000E186E050E176E5EEC04F06F
:10006800226E010E106E22504DEC05F09494226E13
:10007800010E106E22503EEC05F0949200D083B829
:1000880001D001D01FD0256601D001D020D0226E2A
:10009800010E256E2250242A274A282A27500008B4
:1000A8002C0F106E2FEC05F027C010F020EC05F097
:1000B80024C022F00F0E22168350F00B2210836EFC
:1000C80006D005D0226E000E256E225000D083BACD
:1000D80001D001D07BD0266601D001D0D0D7838251
:1000E800226E010E266E2250080E166E120E156E26
:1000F800000E186E0D0E176E5EEC04F0226E050EE3
:10010800106E2250B2EC04F0113411321032113456
:10011800113210321050146E74EC05F0226E0A0E73
:10012800146E225074EC05F0080E166E200E156E33
:10013800000E186E0D0E176E5EEC04F027C014F05A
:1001480074EC05F0226E0A0E146E225074EC05F061
:10015800080E166E000E156E000E186E110E176E34
:100168005EEC04F01ED00001600E2F24D96E000151
:10017800000E3020DA6EDF50146E74EC05F02F4A52
:10018800302A3050800A800F800ED8B42F5CD8A057
:1001980001D001D006D0000E306E000E2F6E01D0B7
:1001A80000D03350226E236A3050231802E12F50BA
:1001B8002218D8A401D001D0D6D700D0226E0A0EBA
:1001C800146E225074EC05F05AD759D7226E000EDF
:0E01D800266E225054D753D752D70CEF00F0AA
:10080000554152542068617320726563656976654D
:1008100064004144432076616C7565206973200053
:1008200050574D2076616C756520697320004865CE
:100830006C6C6F0000000600EACF05F0E1CF06F017
:10084000E2CF07F0D9CF08F0DACF09F0F3CF0AF002
:10085000F4CF0BF0F6CF0CF0F7CF0DF0F8CF0EF091
:10086000F5CF0FF09E509EAA01D001D003D089ECA5
:1008700004F000D09EA201D001D003D0ECEC04F033
:1008800000D00FC0F5FF0EC0F8FF0DC0F7FF0CC081
:10089000F6FF0BC0F4FF0AC0F3FF09C0DAFF08C07F
:1008A000D9FF07C0E2FF06C0E1FF05C0EAFF04C0B0
:1008B000E9FF03C0FBFF02C0FAFF1100000E1C6E2F
:1008C000000E1B6E000E1C6E000E1B6E14D015C0A9
:1008D00019F016C01AF01B5019261C501A2219C004
:1008E000F6FF1AC0F7FF0800F5CF14F074EC05F01E
:1008F0001B4A1C2A00D01C50800A196E17501B5C22
:100900001850800A1958D8A001D001D0E0D700D0E3
:1009100012003350010D0001600EF324D96E000166
:10092000000EF420DA6EAECFDFFF332A3350800A98
:10093000D8A401D001D005D0016E000E336E015055
:1009400000D083A601D002D0010E01D0000E016EAE
:1009500001460146014683500118F70B0118836ECA
:100960009E9A120010C012F0070E1216124612467E
:10097000C2501218C30B1218C26EC28200D0C2B28B
:1009800001D001D0FCD700D0C350C4CF12F0136AFD
:1009900012C013F0126A1210106E1350116E00D0B4
:1009A0001200C294C296C298C29AC19AC198C1500C
:1009B000F00B0A09C16EC08EC050C70B3009C06E63
:1009C000C050F80B0609C06E92502F09926E9650D7
:1009D0000109966EC2801200010E2924296E000EB4
:1009E0002A202A6E000E2B202B6E000E2C202C6E3F
:1009F0002E502D10D8B401D001D007D0FF0E2D24D9
:100A00002D6EFF0E2E202E6E00D09E92120001EE53
:100A100000F0800EEE6AE806FDE100EE60F0800E68
:100A2000EE6AE806FDE100EE29F00B0EEE6AE8063C
:100A3000FDE1000EF86E080EF76E00010AEF00F0FF
:100A400010C011F0030E1116113ABA501118CF0B45
:100A50001118BA6E1040E8423F0BBB6E120010C076
:100A600011F0030E1116113ABD501118CF0B1118C9
:100A7000BD6E1040E8423F0BBE6E1200106601D002
:100A800001D005D0BA90BA92BA94BA9605D0BA50AD
:100A9000F00B0C09BA6E00D01200106601D001D024
:100AA00005D0BD90BD92BD94BD9605D0BD50F00B54
:100AB0000C09BD6E00D01200080EAC6E900EAB6E2D
:100AC000F28EF28CD08E9E9A9D8AB886190EAF6EE9
:100AD000AC8A12004F0ECA6E4B0ECB6EF28EF28CA9
:100AE0009E929D829F82120014C0ADFF00D0ACA2E6
:100AF00001D001D0FCD700D012009550F00B956EBC
:0C0B0000000E836E95503009956E1200B7
:020000040030CA
:0E0000002002391EFF8581FF0FC00FE00F4068
:00000001FF
